{
  "contractName": "Isoko",
  "abi": [
    {
      "inputs": [],
      "stateMutability": "nonpayable",
      "type": "constructor"
    },
    {
      "anonymous": false,
      "inputs": [
        {
          "indexed": false,
          "internalType": "uint256",
          "name": "id",
          "type": "uint256"
        },
        {
          "components": [
            {
              "internalType": "uint256",
              "name": "id",
              "type": "uint256"
            },
            {
              "internalType": "string",
              "name": "imageHash",
              "type": "string"
            },
            {
              "internalType": "string",
              "name": "description",
              "type": "string"
            },
            {
              "internalType": "uint256",
              "name": "unitPrice",
              "type": "uint256"
            },
            {
              "internalType": "uint256",
              "name": "quantity",
              "type": "uint256"
            },
            {
              "internalType": "address payable",
              "name": "owner",
              "type": "address"
            },
            {
              "internalType": "uint256",
              "name": "quantitySold",
              "type": "uint256"
            },
            {
              "internalType": "bool",
              "name": "soldOut",
              "type": "bool"
            }
          ],
          "indexed": false,
          "internalType": "struct Isoko.Article",
          "name": "article",
          "type": "tuple"
        },
        {
          "indexed": false,
          "internalType": "address payable",
          "name": "wishListOwner",
          "type": "address"
        }
      ],
      "name": "AddedToWishList",
      "type": "event"
    },
    {
      "anonymous": false,
      "inputs": [
        {
          "indexed": false,
          "internalType": "uint256",
          "name": "id",
          "type": "uint256"
        },
        {
          "indexed": false,
          "internalType": "string",
          "name": "imageHash",
          "type": "string"
        },
        {
          "indexed": false,
          "internalType": "string",
          "name": "description",
          "type": "string"
        },
        {
          "indexed": false,
          "internalType": "uint256",
          "name": "unitPrice",
          "type": "uint256"
        },
        {
          "indexed": false,
          "internalType": "address payable",
          "name": "owner",
          "type": "address"
        },
        {
          "indexed": false,
          "internalType": "uint256",
          "name": "quantitySold",
          "type": "uint256"
        },
        {
          "indexed": false,
          "internalType": "bool",
          "name": "soldOut",
          "type": "bool"
        }
      ],
      "name": "ArticleCreated",
      "type": "event"
    },
    {
      "anonymous": false,
      "inputs": [
        {
          "components": [
            {
              "internalType": "uint256",
              "name": "id",
              "type": "uint256"
            },
            {
              "internalType": "string",
              "name": "imageHash",
              "type": "string"
            },
            {
              "internalType": "string",
              "name": "description",
              "type": "string"
            },
            {
              "internalType": "uint256",
              "name": "unitPrice",
              "type": "uint256"
            },
            {
              "internalType": "uint256",
              "name": "quantity",
              "type": "uint256"
            },
            {
              "internalType": "address payable",
              "name": "owner",
              "type": "address"
            },
            {
              "internalType": "uint256",
              "name": "quantitySold",
              "type": "uint256"
            },
            {
              "internalType": "bool",
              "name": "soldOut",
              "type": "bool"
            }
          ],
          "indexed": false,
          "internalType": "struct Isoko.Article",
          "name": "article",
          "type": "tuple"
        }
      ],
      "name": "ArticleDeleted",
      "type": "event"
    },
    {
      "anonymous": false,
      "inputs": [
        {
          "indexed": false,
          "internalType": "uint256",
          "name": "id",
          "type": "uint256"
        },
        {
          "indexed": false,
          "internalType": "string",
          "name": "imageHash",
          "type": "string"
        },
        {
          "indexed": false,
          "internalType": "string",
          "name": "description",
          "type": "string"
        },
        {
          "indexed": false,
          "internalType": "uint256",
          "name": "unitPrice",
          "type": "uint256"
        },
        {
          "indexed": false,
          "internalType": "address payable",
          "name": "owner",
          "type": "address"
        },
        {
          "indexed": false,
          "internalType": "uint256",
          "name": "quantitySold",
          "type": "uint256"
        },
        {
          "indexed": false,
          "internalType": "bool",
          "name": "soldOut",
          "type": "bool"
        }
      ],
      "name": "ArticlePurchased",
      "type": "event"
    },
    {
      "anonymous": false,
      "inputs": [
        {
          "components": [
            {
              "internalType": "uint256",
              "name": "id",
              "type": "uint256"
            },
            {
              "components": [
                {
                  "internalType": "uint256",
                  "name": "id",
                  "type": "uint256"
                },
                {
                  "internalType": "string",
                  "name": "imageHash",
                  "type": "string"
                },
                {
                  "internalType": "string",
                  "name": "description",
                  "type": "string"
                },
                {
                  "internalType": "uint256",
                  "name": "unitPrice",
                  "type": "uint256"
                },
                {
                  "internalType": "uint256",
                  "name": "quantity",
                  "type": "uint256"
                },
                {
                  "internalType": "address payable",
                  "name": "owner",
                  "type": "address"
                },
                {
                  "internalType": "uint256",
                  "name": "quantitySold",
                  "type": "uint256"
                },
                {
                  "internalType": "bool",
                  "name": "soldOut",
                  "type": "bool"
                }
              ],
              "internalType": "struct Isoko.Article",
              "name": "article",
              "type": "tuple"
            },
            {
              "internalType": "address payable",
              "name": "wishListOwner",
              "type": "address"
            }
          ],
          "indexed": false,
          "internalType": "struct Isoko.WishList",
          "name": "wish",
          "type": "tuple"
        }
      ],
      "name": "RemovedFromWishList",
      "type": "event"
    },
    {
      "anonymous": false,
      "inputs": [
        {
          "components": [
            {
              "internalType": "uint256",
              "name": "id",
              "type": "uint256"
            },
            {
              "components": [
                {
                  "internalType": "uint256",
                  "name": "id",
                  "type": "uint256"
                },
                {
                  "internalType": "string",
                  "name": "imageHash",
                  "type": "string"
                },
                {
                  "internalType": "string",
                  "name": "description",
                  "type": "string"
                },
                {
                  "internalType": "uint256",
                  "name": "unitPrice",
                  "type": "uint256"
                },
                {
                  "internalType": "uint256",
                  "name": "quantity",
                  "type": "uint256"
                },
                {
                  "internalType": "address payable",
                  "name": "owner",
                  "type": "address"
                },
                {
                  "internalType": "uint256",
                  "name": "quantitySold",
                  "type": "uint256"
                },
                {
                  "internalType": "bool",
                  "name": "soldOut",
                  "type": "bool"
                }
              ],
              "internalType": "struct Isoko.Article",
              "name": "article",
              "type": "tuple"
            },
            {
              "internalType": "address payable",
              "name": "wishListOwner",
              "type": "address"
            }
          ],
          "indexed": false,
          "internalType": "struct Isoko.WishList[]",
          "name": "myWishList",
          "type": "tuple[]"
        }
      ],
      "name": "ViewedWishList",
      "type": "event"
    },
    {
      "inputs": [],
      "name": "articleCount",
      "outputs": [
        {
          "internalType": "uint256",
          "name": "",
          "type": "uint256"
        }
      ],
      "stateMutability": "view",
      "type": "function",
      "constant": true
    },
    {
      "inputs": [
        {
          "internalType": "uint256",
          "name": "",
          "type": "uint256"
        }
      ],
      "name": "articles",
      "outputs": [
        {
          "internalType": "uint256",
          "name": "id",
          "type": "uint256"
        },
        {
          "internalType": "string",
          "name": "imageHash",
          "type": "string"
        },
        {
          "internalType": "string",
          "name": "description",
          "type": "string"
        },
        {
          "internalType": "uint256",
          "name": "unitPrice",
          "type": "uint256"
        },
        {
          "internalType": "uint256",
          "name": "quantity",
          "type": "uint256"
        },
        {
          "internalType": "address payable",
          "name": "owner",
          "type": "address"
        },
        {
          "internalType": "uint256",
          "name": "quantitySold",
          "type": "uint256"
        },
        {
          "internalType": "bool",
          "name": "soldOut",
          "type": "bool"
        }
      ],
      "stateMutability": "view",
      "type": "function",
      "constant": true
    },
    {
      "inputs": [
        {
          "internalType": "uint256",
          "name": "",
          "type": "uint256"
        }
      ],
      "name": "articlesFound",
      "outputs": [
        {
          "internalType": "uint256",
          "name": "id",
          "type": "uint256"
        },
        {
          "internalType": "string",
          "name": "imageHash",
          "type": "string"
        },
        {
          "internalType": "string",
          "name": "description",
          "type": "string"
        },
        {
          "internalType": "uint256",
          "name": "unitPrice",
          "type": "uint256"
        },
        {
          "internalType": "uint256",
          "name": "quantity",
          "type": "uint256"
        },
        {
          "internalType": "address payable",
          "name": "owner",
          "type": "address"
        },
        {
          "internalType": "uint256",
          "name": "quantitySold",
          "type": "uint256"
        },
        {
          "internalType": "bool",
          "name": "soldOut",
          "type": "bool"
        }
      ],
      "stateMutability": "view",
      "type": "function",
      "constant": true
    },
    {
      "inputs": [],
      "name": "owner",
      "outputs": [
        {
          "internalType": "address payable",
          "name": "",
          "type": "address"
        }
      ],
      "stateMutability": "view",
      "type": "function",
      "constant": true
    },
    {
      "inputs": [
        {
          "internalType": "uint256",
          "name": "",
          "type": "uint256"
        }
      ],
      "name": "theWishList",
      "outputs": [
        {
          "internalType": "uint256",
          "name": "id",
          "type": "uint256"
        },
        {
          "components": [
            {
              "internalType": "uint256",
              "name": "id",
              "type": "uint256"
            },
            {
              "internalType": "string",
              "name": "imageHash",
              "type": "string"
            },
            {
              "internalType": "string",
              "name": "description",
              "type": "string"
            },
            {
              "internalType": "uint256",
              "name": "unitPrice",
              "type": "uint256"
            },
            {
              "internalType": "uint256",
              "name": "quantity",
              "type": "uint256"
            },
            {
              "internalType": "address payable",
              "name": "owner",
              "type": "address"
            },
            {
              "internalType": "uint256",
              "name": "quantitySold",
              "type": "uint256"
            },
            {
              "internalType": "bool",
              "name": "soldOut",
              "type": "bool"
            }
          ],
          "internalType": "struct Isoko.Article",
          "name": "article",
          "type": "tuple"
        },
        {
          "internalType": "address payable",
          "name": "wishListOwner",
          "type": "address"
        }
      ],
      "stateMutability": "view",
      "type": "function",
      "constant": true
    },
    {
      "inputs": [],
      "name": "wishListCount",
      "outputs": [
        {
          "internalType": "uint256",
          "name": "",
          "type": "uint256"
        }
      ],
      "stateMutability": "view",
      "type": "function",
      "constant": true
    },
    {
      "inputs": [
        {
          "internalType": "string",
          "name": "_imageHash",
          "type": "string"
        },
        {
          "internalType": "string",
          "name": "_description",
          "type": "string"
        },
        {
          "internalType": "uint256",
          "name": "_unitPrice",
          "type": "uint256"
        }
      ],
      "name": "createArticle",
      "outputs": [],
      "stateMutability": "nonpayable",
      "type": "function"
    },
    {
      "inputs": [
        {
          "internalType": "uint256",
          "name": "_id",
          "type": "uint256"
        }
      ],
      "name": "purchaseArticle",
      "outputs": [],
      "stateMutability": "payable",
      "type": "function",
      "payable": true
    },
    {
      "inputs": [
        {
          "internalType": "uint256",
          "name": "_id",
          "type": "uint256"
        }
      ],
      "name": "removeArticle",
      "outputs": [],
      "stateMutability": "nonpayable",
      "type": "function"
    },
    {
      "inputs": [
        {
          "internalType": "uint256",
          "name": "_id",
          "type": "uint256"
        }
      ],
      "name": "addToWishList",
      "outputs": [],
      "stateMutability": "nonpayable",
      "type": "function"
    },
    {
      "inputs": [
        {
          "internalType": "uint256",
          "name": "_id",
          "type": "uint256"
        }
      ],
      "name": "removeFromWishList",
      "outputs": [],
      "stateMutability": "nonpayable",
      "type": "function"
    },
    {
      "inputs": [
        {
          "internalType": "string",
          "name": "_textToSearch",
          "type": "string"
        }
      ],
      "name": "search",
      "outputs": [
        {
          "internalType": "bool",
          "name": "",
          "type": "bool"
        }
      ],
      "stateMutability": "view",
      "type": "function",
      "constant": true
    }
  ],
  "bytecode": "0x60806040526000600155600060025534801561001a57600080fd5b5033600660006101000a81548173ffffffffffffffffffffffffffffffffffffffff021916908373ffffffffffffffffffffffffffffffffffffffff1602179055506132d78061006b6000396000f3fe6080604052600436106100a75760003560e01c8063ac4f861a11610064578063ac4f861a146101d5578063b2a6d889146101f1578063bd5d9cef1461021c578063d216986e14610245578063edcfafe614610284578063f8471f0b146102c8576100a7565b80631fc4a743146100ac5780633fdc859e146100d5578063414e28b0146101195780637e28ee1814610144578063820ed0861461016d5780638da5cb5b146101aa575b600080fd5b3480156100b857600080fd5b506100d360048036038101906100ce9190612515565b6102f1565b005b3480156100e157600080fd5b506100fc60048036038101906100f79190612515565b6108bb565b604051610110989796959493929190612c08565b60405180910390f35b34801561012557600080fd5b5061012e610a40565b60405161013b9190612af3565b60405180910390f35b34801561015057600080fd5b5061016b60048036038101906101669190612515565b610a46565b005b34801561017957600080fd5b50610194600480360381019061018f9190612441565b610ee9565b6040516101a19190612954565b60405180910390f35b3480156101b657600080fd5b506101bf610fd7565b6040516101cc9190612939565b60405180910390f35b6101ef60048036038101906101ea9190612515565b610ffd565b005b3480156101fd57600080fd5b50610206611691565b6040516102139190612af3565b60405180910390f35b34801561022857600080fd5b50610243600480360381019061023e919061248a565b611697565b005b34801561025157600080fd5b5061026c60048036038101906102679190612515565b6118fd565b60405161027b93929190612c94565b60405180910390f35b34801561029057600080fd5b506102ab60048036038101906102a69190612515565b611b0f565b6040516102bf989796959493929190612c08565b60405180910390f35b3480156102d457600080fd5b506102ef60048036038101906102ea9190612515565b611c94565b005b6000600460008381526020019081526020016000206040518060600160405290816000820154815260200160018201604051806101000160405290816000820154815260200160018201805461034690612ea5565b80601f016020809104026020016040519081016040528092919081815260200182805461037290612ea5565b80156103bf5780601f10610394576101008083540402835291602001916103bf565b820191906000526020600020905b8154815290600101906020018083116103a257829003601f168201915b505050505081526020016002820180546103d890612ea5565b80601f016020809104026020016040519081016040528092919081815260200182805461040490612ea5565b80156104515780601f1061042657610100808354040283529160200191610451565b820191906000526020600020905b81548152906001019060200180831161043457829003601f168201915b5050505050815260200160038201548152602001600482015481526020016005820160009054906101000a900473ffffffffffffffffffffffffffffffffffffffff1673ffffffffffffffffffffffffffffffffffffffff1673ffffffffffffffffffffffffffffffffffffffff168152602001600682015481526020016007820160009054906101000a900460ff16151515158152505081526020016009820160009054906101000a900473ffffffffffffffffffffffffffffffffffffffff1673ffffffffffffffffffffffffffffffffffffffff1673ffffffffffffffffffffffffffffffffffffffff16815250509050806040015173ffffffffffffffffffffffffffffffffffffffff163373ffffffffffffffffffffffffffffffffffffffff16146105b7576040517f08c379a00000000000000000000000000000000000000000000000000000000081526004016105ae90612a4f565b60405180910390fd5b60008290505b60016002546105cc9190612dab565b81101561079257600460006001836105e49190612d55565b81526020019081526020016000206004600083815260200190815260200160002060008201548160000155600182018160010160008201548160000155600182018160010190805461063590612ea5565b61064092919061224c565b50600282018160020190805461065590612ea5565b61066092919061224c565b5060038201548160030155600482015481600401556005820160009054906101000a900473ffffffffffffffffffffffffffffffffffffffff168160050160006101000a81548173ffffffffffffffffffffffffffffffffffffffff021916908373ffffffffffffffffffffffffffffffffffffffff160217905550600682015481600601556007820160009054906101000a900460ff168160070160006101000a81548160ff02191690831515021790555050506009820160009054906101000a900473ffffffffffffffffffffffffffffffffffffffff168160090160006101000a81548173ffffffffffffffffffffffffffffffffffffffff021916908373ffffffffffffffffffffffffffffffffffffffff160217905550905050808061078a90612f08565b9150506105bd565b506004600060016002546107a69190612dab565b8152602001908152602001600020600080820160009055600182016000808201600090556001820160006107da91906122d9565b6002820160006107ea91906122d9565b600382016000905560048201600090556005820160006101000a81549073ffffffffffffffffffffffffffffffffffffffff021916905560068201600090556007820160006101000a81549060ff021916905550506009820160006101000a81549073ffffffffffffffffffffffffffffffffffffffff021916905550506002600081548092919061087b90612e7b565b91905055507f268cf6dd08b1099c0edceeaa2689bf5562f0fa2472b3f046c5c449dd28bc3654816040516108af9190612ad1565b60405180910390a15050565b60056020528060005260406000206000915090508060000154908060010180546108e490612ea5565b80601f016020809104026020016040519081016040528092919081815260200182805461091090612ea5565b801561095d5780601f106109325761010080835404028352916020019161095d565b820191906000526020600020905b81548152906001019060200180831161094057829003601f168201915b50505050509080600201805461097290612ea5565b80601f016020809104026020016040519081016040528092919081815260200182805461099e90612ea5565b80156109eb5780601f106109c0576101008083540402835291602001916109eb565b820191906000526020600020905b8154815290600101906020018083116109ce57829003601f168201915b5050505050908060030154908060040154908060050160009054906101000a900473ffffffffffffffffffffffffffffffffffffffff16908060060154908060070160009054906101000a900460ff16905088565b60015481565b6000600360008381526020019081526020016000206040518061010001604052908160008201548152602001600182018054610a8190612ea5565b80601f0160208091040260200160405190810160405280929190818152602001828054610aad90612ea5565b8015610afa5780601f10610acf57610100808354040283529160200191610afa565b820191906000526020600020905b815481529060010190602001808311610add57829003601f168201915b50505050508152602001600282018054610b1390612ea5565b80601f0160208091040260200160405190810160405280929190818152602001828054610b3f90612ea5565b8015610b8c5780601f10610b6157610100808354040283529160200191610b8c565b820191906000526020600020905b815481529060010190602001808311610b6f57829003601f168201915b5050505050815260200160038201548152602001600482015481526020016005820160009054906101000a900473ffffffffffffffffffffffffffffffffffffffff1673ffffffffffffffffffffffffffffffffffffffff1673ffffffffffffffffffffffffffffffffffffffff168152602001600682015481526020016007820160009054906101000a900460ff16151515158152505090508060a0015173ffffffffffffffffffffffffffffffffffffffff163373ffffffffffffffffffffffffffffffffffffffff1614610c98576040517f08c379a0000000000000000000000000000000000000000000000000000000008152600401610c8f906129ef565b60405180910390fd5b60008290505b60018054610cac9190612dab565b811015610df75760036000600183610cc49190612d55565b815260200190815260200160002060036000838152602001908152602001600020600082015481600001556001820181600101908054610d0390612ea5565b610d0e92919061224c565b506002820181600201908054610d2390612ea5565b610d2e92919061224c565b5060038201548160030155600482015481600401556005820160009054906101000a900473ffffffffffffffffffffffffffffffffffffffff168160050160006101000a81548173ffffffffffffffffffffffffffffffffffffffff021916908373ffffffffffffffffffffffffffffffffffffffff160217905550600682015481600601556007820160009054906101000a900460ff168160070160006101000a81548160ff0219169083151502179055509050508080610def90612f08565b915050610c9e565b506003600060018054610e0a9190612dab565b8152602001908152602001600020600080820160009055600182016000610e3191906122d9565b600282016000610e4191906122d9565b600382016000905560048201600090556005820160006101000a81549073ffffffffffffffffffffffffffffffffffffffff021916905560068201600090556007820160006101000a81549060ff0219169055505060016000815480929190610ea990612e7b565b91905055507f1616e51cadd5142589a06b11ff1a242d0a49857a606b01f3cdfcad12abfd352d81604051610edd9190612aaf565b60405180910390a15050565b600080600090506000600190505b600154811015610fcd576000600360008381526020019081526020016000206002018054610f2490612ea5565b80601f0160208091040260200160405190810160405280929190818152602001828054610f5090612ea5565b8015610f9d5780601f10610f7257610100808354040283529160200191610f9d565b820191906000526020600020905b815481529060010190602001808311610f8057829003601f168201915b50505050509050610fb785826120b090919063ffffffff16565b9250508080610fc590612f08565b915050610ef7565b5080915050919050565b600660009054906101000a900473ffffffffffffffffffffffffffffffffffffffff1681565b80600060036000838152602001908152602001600020604051806101000160405290816000820154815260200160018201805461103990612ea5565b80601f016020809104026020016040519081016040528092919081815260200182805461106590612ea5565b80156110b25780601f10611087576101008083540402835291602001916110b2565b820191906000526020600020905b81548152906001019060200180831161109557829003601f168201915b505050505081526020016002820180546110cb90612ea5565b80601f01602080910402602001604051908101604052809291908181526020018280546110f790612ea5565b80156111445780601f1061111957610100808354040283529160200191611144565b820191906000526020600020905b81548152906001019060200180831161112757829003601f168201915b5050505050815260200160038201548152602001600482015481526020016005820160009054906101000a900473ffffffffffffffffffffffffffffffffffffffff1673ffffffffffffffffffffffffffffffffffffffff1673ffffffffffffffffffffffffffffffffffffffff168152602001600682015481526020016007820160009054906101000a900460ff16151515158152505090508060600151341015611225576040517f08c379a000000000000000000000000000000000000000000000000000000000815260040161121c906129cf565b60405180910390fd5b60008311801561123757506001548311155b611276576040517f08c379a000000000000000000000000000000000000000000000000000000000815260040161126d90612a2f565b60405180910390fd5b60006003600085815260200190815260200160002060405180610100016040529081600082015481526020016001820180546112b190612ea5565b80601f01602080910402602001604051908101604052809291908181526020018280546112dd90612ea5565b801561132a5780601f106112ff5761010080835404028352916020019161132a565b820191906000526020600020905b81548152906001019060200180831161130d57829003601f168201915b5050505050815260200160028201805461134390612ea5565b80601f016020809104026020016040519081016040528092919081815260200182805461136f90612ea5565b80156113bc5780601f10611391576101008083540402835291602001916113bc565b820191906000526020600020905b81548152906001019060200180831161139f57829003601f168201915b5050505050815260200160038201548152602001600482015481526020016005820160009054906101000a900473ffffffffffffffffffffffffffffffffffffffff1673ffffffffffffffffffffffffffffffffffffffff1673ffffffffffffffffffffffffffffffffffffffff168152602001600682015481526020016007820160009054906101000a900460ff161515151581525050905060008160a0015190508160e001511561146e57600080fd5b3373ffffffffffffffffffffffffffffffffffffffff168173ffffffffffffffffffffffffffffffffffffffff1614156114a757600080fd5b338260a0019073ffffffffffffffffffffffffffffffffffffffff16908173ffffffffffffffffffffffffffffffffffffffff168152505060018260c001516114f09190612d55565b8260c001818152505060018260e00190151590811515815250508160036000878152602001908152602001600020600082015181600001556020820151816001019080519060200190611544929190612319565b506040820151816002019080519060200190611561929190612319565b50606082015181600301556080820151816004015560a08201518160050160006101000a81548173ffffffffffffffffffffffffffffffffffffffff021916908373ffffffffffffffffffffffffffffffffffffffff16021790555060c0820151816006015560e08201518160070160006101000a81548160ff0219169083151502179055509050508073ffffffffffffffffffffffffffffffffffffffff166108fc349081150290604051600060405180830381858888f19350505050158015611630573d6000803e3d6000fd5b507f798aa7e1d9a9e94d229da30785e480d4daf11a833c70b6c4e6760787faa7d1ed600154836020015184604001518560600151338760c001518860e001516040516116829796959493929190612b8b565b60405180910390a15050505050565b60025481565b60008251116116db576040517f08c379a00000000000000000000000000000000000000000000000000000000081526004016116d290612a0f565b60405180910390fd5b600083511161171f576040517f08c379a0000000000000000000000000000000000000000000000000000000008152600401611716906129af565b60405180910390fd5b60008111611762576040517f08c379a00000000000000000000000000000000000000000000000000000000081526004016117599061296f565b60405180910390fd5b6001600081548092919061177590612f08565b91905055506040518061010001604052806001548152602001848152602001838152602001828152602001600181526020013373ffffffffffffffffffffffffffffffffffffffff168152602001600081526020016000151581525060036000600154815260200190815260200160002060008201518160000155602082015181600101908051906020019061180c929190612319565b506040820151816002019080519060200190611829929190612319565b50606082015181600301556080820151816004015560a08201518160050160006101000a81548173ffffffffffffffffffffffffffffffffffffffff021916908373ffffffffffffffffffffffffffffffffffffffff16021790555060c0820151816006015560e08201518160070160006101000a81548160ff0219169083151502179055509050507f5d703592788a7b14e6fd84571f960ae570b929c01c88769c377ee904d04338ae600154848484336000806040516118f09796959493929190612b0e565b60405180910390a1505050565b600460205280600052604060002060009150905080600001549080600101604051806101000160405290816000820154815260200160018201805461194190612ea5565b80601f016020809104026020016040519081016040528092919081815260200182805461196d90612ea5565b80156119ba5780601f1061198f576101008083540402835291602001916119ba565b820191906000526020600020905b81548152906001019060200180831161199d57829003601f168201915b505050505081526020016002820180546119d390612ea5565b80601f01602080910402602001604051908101604052809291908181526020018280546119ff90612ea5565b8015611a4c5780601f10611a2157610100808354040283529160200191611a4c565b820191906000526020600020905b815481529060010190602001808311611a2f57829003601f168201915b5050505050815260200160038201548152602001600482015481526020016005820160009054906101000a900473ffffffffffffffffffffffffffffffffffffffff1673ffffffffffffffffffffffffffffffffffffffff1673ffffffffffffffffffffffffffffffffffffffff168152602001600682015481526020016007820160009054906101000a900460ff161515151581525050908060090160009054906101000a900473ffffffffffffffffffffffffffffffffffffffff16905083565b6003602052806000526040600020600091509050806000015490806001018054611b3890612ea5565b80601f0160208091040260200160405190810160405280929190818152602001828054611b6490612ea5565b8015611bb15780601f10611b8657610100808354040283529160200191611bb1565b820191906000526020600020905b815481529060010190602001808311611b9457829003601f168201915b505050505090806002018054611bc690612ea5565b80601f0160208091040260200160405190810160405280929190818152602001828054611bf290612ea5565b8015611c3f5780601f10611c1457610100808354040283529160200191611c3f565b820191906000526020600020905b815481529060010190602001808311611c2257829003601f168201915b5050505050908060030154908060040154908060050160009054906101000a900473ffffffffffffffffffffffffffffffffffffffff16908060060154908060070160009054906101000a900460ff16905088565b6000600360008381526020019081526020016000206040518061010001604052908160008201548152602001600182018054611ccf90612ea5565b80601f0160208091040260200160405190810160405280929190818152602001828054611cfb90612ea5565b8015611d485780601f10611d1d57610100808354040283529160200191611d48565b820191906000526020600020905b815481529060010190602001808311611d2b57829003601f168201915b50505050508152602001600282018054611d6190612ea5565b80601f0160208091040260200160405190810160405280929190818152602001828054611d8d90612ea5565b8015611dda5780601f10611daf57610100808354040283529160200191611dda565b820191906000526020600020905b815481529060010190602001808311611dbd57829003601f168201915b5050505050815260200160038201548152602001600482015481526020016005820160009054906101000a900473ffffffffffffffffffffffffffffffffffffffff1673ffffffffffffffffffffffffffffffffffffffff1673ffffffffffffffffffffffffffffffffffffffff168152602001600682015481526020016007820160009054906101000a900460ff16151515158152505090503373ffffffffffffffffffffffffffffffffffffffff168160a0015173ffffffffffffffffffffffffffffffffffffffff161415611ee7576040517f08c379a0000000000000000000000000000000000000000000000000000000008152600401611ede90612a8f565b60405180910390fd5b60026000815480929190611efa90612f08565b9190505550604051806060016040528060025481526020018281526020013373ffffffffffffffffffffffffffffffffffffffff1681525060046000600254815260200190815260200160002060008201518160000155602082015181600101600082015181600001556020820151816001019080519060200190611f80929190612319565b506040820151816002019080519060200190611f9d929190612319565b50606082015181600301556080820151816004015560a08201518160050160006101000a81548173ffffffffffffffffffffffffffffffffffffffff021916908373ffffffffffffffffffffffffffffffffffffffff16021790555060c0820151816006015560e08201518160070160006101000a81548160ff021916908315150217905550505060408201518160090160006101000a81548173ffffffffffffffffffffffffffffffffffffffff021916908373ffffffffffffffffffffffffffffffffffffffff1602179055509050507f955e78bb1a0003b652d5c1a721a6b2bc74eb605345d0c81397b256549b7a97e760025482336040516120a493929190612c94565b60405180910390a15050565b600080839050600083905060008251116120ff576040517f08c379a00000000000000000000000000000000000000000000000000000000081526004016120f690612a6f565b60405180910390fd5b6000815111612143576040517f08c379a000000000000000000000000000000000000000000000000000000000815260040161213a9061298f565b60405180910390fd5b6000805b825184516121559190612dab565b81101561223f5760006001905060005b845181101561221a5784818151811061218157612180612faf565b5b602001015160f81c60f81b7effffffffffffffffffffffffffffffffffffffffffffffffffffffffffffff19168682856121bb9190612d55565b815181106121cc576121cb612faf565b5b602001015160f81c60f81b7effffffffffffffffffffffffffffffffffffffffffffffffffffffffffffff191614612207576000915061221a565b808061221290612f08565b915050612165565b50801561222b57600192505061223f565b50808061223790612f08565b915050612147565b5080935050505092915050565b82805461225890612ea5565b90600052602060002090601f01602090048101928261227a57600085556122c8565b82601f1061228b57805485556122c8565b828001600101855582156122c857600052602060002091601f016020900482015b828111156122c75782548255916001019190600101906122ac565b5b5090506122d5919061239f565b5090565b5080546122e590612ea5565b6000825580601f106122f75750612316565b601f016020900490600052602060002090810190612315919061239f565b5b50565b82805461232590612ea5565b90600052602060002090601f016020900481019282612347576000855561238e565b82601f1061236057805160ff191683800117855561238e565b8280016001018555821561238e579182015b8281111561238d578251825591602001919060010190612372565b5b50905061239b919061239f565b5090565b5b808211156123b85760008160009055506001016123a0565b5090565b60006123cf6123ca84612cf7565b612cd2565b9050828152602081018484840111156123eb576123ea613012565b5b6123f6848285612e39565b509392505050565b600082601f8301126124135761241261300d565b5b81356124238482602086016123bc565b91505092915050565b60008135905061243b8161328a565b92915050565b6000602082840312156124575761245661301c565b5b600082013567ffffffffffffffff81111561247557612474613017565b5b612481848285016123fe565b91505092915050565b6000806000606084860312156124a3576124a261301c565b5b600084013567ffffffffffffffff8111156124c1576124c0613017565b5b6124cd868287016123fe565b935050602084013567ffffffffffffffff8111156124ee576124ed613017565b5b6124fa868287016123fe565b925050604061250b8682870161242c565b9150509250925092565b60006020828403121561252b5761252a61301c565b5b60006125398482850161242c565b91505092915050565b61254b81612ddf565b82525050565b61255a81612ddf565b82525050565b61256981612df1565b82525050565b61257881612df1565b82525050565b61258781612e27565b82525050565b600061259882612d28565b6125a28185612d33565b93506125b2818560208601612e48565b6125bb81613021565b840191505092915050565b60006125d182612d28565b6125db8185612d44565b93506125eb818560208601612e48565b6125f481613021565b840191505092915050565b600061260c603183612d44565b915061261782613032565b604082019050919050565b600061262f602683612d44565b915061263a82613081565b604082019050919050565b6000612652602183612d44565b915061265d826130d0565b604082019050919050565b6000612675600e83612d44565b91506126808261311f565b602082019050919050565b6000612698601583612d44565b91506126a382613148565b602082019050919050565b60006126bb602c83612d44565b91506126c682613171565b604082019050919050565b60006126de601483612d44565b91506126e9826131c0565b602082019050919050565b6000612701601683612d44565b915061270c826131e9565b602082019050919050565b6000612724602383612d44565b915061272f82613212565b604082019050919050565b6000612747601983612d44565b915061275282613261565b602082019050919050565b600061010083016000830151612776600086018261291b565b506020830151848203602086015261278e828261258d565b915050604083015184820360408601526127a8828261258d565b91505060608301516127bd606086018261291b565b5060808301516127d0608086018261291b565b5060a08301516127e360a0860182612542565b5060c08301516127f660c086018261291b565b5060e083015161280960e0860182612560565b508091505092915050565b60006101008301600083015161282d600086018261291b565b5060208301518482036020860152612845828261258d565b9150506040830151848203604086015261285f828261258d565b9150506060830151612874606086018261291b565b506080830151612887608086018261291b565b5060a083015161289a60a0860182612542565b5060c08301516128ad60c086018261291b565b5060e08301516128c060e0860182612560565b508091505092915050565b60006060830160008301516128e3600086018261291b565b50602083015184820360208601526128fb828261275d565b91505060408301516129106040860182612542565b508091505092915050565b61292481612e1d565b82525050565b61293381612e1d565b82525050565b600060208201905061294e6000830184612551565b92915050565b6000602082019050612969600083018461256f565b92915050565b60006020820190508181036000830152612988816125ff565b9050919050565b600060208201905081810360008301526129a881612622565b9050919050565b600060208201905081810360008301526129c881612645565b9050919050565b600060208201905081810360008301526129e881612668565b9050919050565b60006020820190508181036000830152612a088161268b565b9050919050565b60006020820190508181036000830152612a28816126ae565b9050919050565b60006020820190508181036000830152612a48816126d1565b9050919050565b60006020820190508181036000830152612a68816126f4565b9050919050565b60006020820190508181036000830152612a8881612717565b9050919050565b60006020820190508181036000830152612aa88161273a565b9050919050565b60006020820190508181036000830152612ac98184612814565b905092915050565b60006020820190508181036000830152612aeb81846128cb565b905092915050565b6000602082019050612b08600083018461292a565b92915050565b600060e082019050612b23600083018a61292a565b8181036020830152612b3581896125c6565b90508181036040830152612b4981886125c6565b9050612b58606083018761292a565b612b656080830186612551565b612b7260a083018561257e565b612b7f60c083018461256f565b98975050505050505050565b600060e082019050612ba0600083018a61292a565b8181036020830152612bb281896125c6565b90508181036040830152612bc681886125c6565b9050612bd5606083018761292a565b612be26080830186612551565b612bef60a083018561292a565b612bfc60c083018461256f565b98975050505050505050565b600061010082019050612c1e600083018b61292a565b8181036020830152612c30818a6125c6565b90508181036040830152612c4481896125c6565b9050612c53606083018861292a565b612c60608083018761292a565b612c6d60a0830186612551565b612c7a60c083018561292a565b612c8760e083018461256f565b9998505050505050505050565b6000606082019050612ca9600083018661292a565b8181036020830152612cbb8185612814565b9050612cca6040830184612551565b949350505050565b6000612cdc612ced565b9050612ce88282612ed7565b919050565b6000604051905090565b600067ffffffffffffffff821115612d1257612d11612fde565b5b612d1b82613021565b9050602081019050919050565b600081519050919050565b600082825260208201905092915050565b600082825260208201905092915050565b6000612d6082612e1d565b9150612d6b83612e1d565b9250827fffffffffffffffffffffffffffffffffffffffffffffffffffffffffffffffff03821115612da057612d9f612f51565b5b828201905092915050565b6000612db682612e1d565b9150612dc183612e1d565b925082821015612dd457612dd3612f51565b5b828203905092915050565b6000612dea82612dfd565b9050919050565b60008115159050919050565b600073ffffffffffffffffffffffffffffffffffffffff82169050919050565b6000819050919050565b6000612e3282612e1d565b9050919050565b82818337600083830152505050565b60005b83811015612e66578082015181840152602081019050612e4b565b83811115612e75576000848401525b50505050565b6000612e8682612e1d565b91506000821415612e9a57612e99612f51565b5b600182039050919050565b60006002820490506001821680612ebd57607f821691505b60208210811415612ed157612ed0612f80565b5b50919050565b612ee082613021565b810181811067ffffffffffffffff82111715612eff57612efe612fde565b5b80604052505050565b6000612f1382612e1d565b91507fffffffffffffffffffffffffffffffffffffffffffffffffffffffffffffffff821415612f4657612f45612f51565b5b600182019050919050565b7f4e487b7100000000000000000000000000000000000000000000000000000000600052601160045260246000fd5b7f4e487b7100000000000000000000000000000000000000000000000000000000600052602260045260246000fd5b7f4e487b7100000000000000000000000000000000000000000000000000000000600052603260045260246000fd5b7f4e487b7100000000000000000000000000000000000000000000000000000000600052604160045260246000fd5b600080fd5b600080fd5b600080fd5b600080fd5b6000601f19601f8301169050919050565b7f5468652061727469636c6520756e69742070726963652073686f756c64206e6f60008201527f74206265206c657373207468616e203021000000000000000000000000000000602082015250565b7f54686520537562537472696e6720746578742073686f756c64206e6f7420626560008201527f20656d7074790000000000000000000000000000000000000000000000000000602082015250565b7f54686520696d61676520686173682073686f756c642062652070726573656e7460008201527f2100000000000000000000000000000000000000000000000000000000000000602082015250565b7f496e76616c696420416d6f756e74000000000000000000000000000000000000600082015250565b7f4e6f74205468652041727469636c65204f776e65720000000000000000000000600082015250565b7f5468652041727469636c65204465736372697074696f6e2073686f756c64206e60008201527f6f7420626520656d707479210000000000000000000000000000000000000000602082015250565b7f546865204964206973206e6f742076616c696421000000000000000000000000600082015250565b7f4e6f742054686520576973686c697374204f776e657200000000000000000000600082015250565b7f54686520537472696e6720746578742073686f756c64206e6f7420626520656d60008201527f7074790000000000000000000000000000000000000000000000000000000000602082015250565b7f596f7520617265207468652041727469636c65204f776e657200000000000000600082015250565b61329381612e1d565b811461329e57600080fd5b5056fea2646970667358221220c157f090e416b5ed19c3978cb1aed560ab4e6eecde9ff3597d98a9e7e2c461e064736f6c63430008070033",
  "immutableReferences": {},
  "source": "// SPDX-License-Identifier: MIT\npragma solidity 0.8.7;\n\nimport \"@openzeppelin/contracts-upgradeable/proxy/utils/Initializable.sol\";\n\n\n/// @notice this library can be used on any string to check if a string is a substring of another\nlibrary String {\n    function searchSubString(string memory searchableText, string memory searchText) pure internal returns(bool) {\n        // Convert String to bytes\n        bytes memory searchableTextInBytes = bytes(searchableText);\n        bytes memory searchTextInBytes = bytes(searchText);\n        // the string and substring should not be empty\n        require(searchableTextInBytes.length > 0, \"The String text should not be empty\");\n        require(searchTextInBytes.length > 0, \"The SubString text should not be empty\");\n        // Search if a specific string contains a substring\n        bool found = false;\n        for (uint i = 0; i < searchableTextInBytes.length - searchTextInBytes.length; i++) {\n            bool flag = true;\n            for (uint j = 0; j < searchTextInBytes.length; j++)\n                if (searchableTextInBytes [i + j] != searchTextInBytes [j]) {\n                    flag = false;\n                    break;\n                }\n                if (flag) {\n                    found = true;\n                    break;\n                }\n            }\n\n        return found;\n        \n    }\n} \n\n/// @title Isoko which mean marketpalce in kinyarwanda\n/// @notice this contract contains some basic marketplace functionalities\ncontract Isoko is Initializable {\n    using String for string;\n\n    /* State variables\n    */\n    uint public articleCount = 0;\n    uint public wishListCount = 0;\n    mapping(uint => Article) public articles;\n\n    mapping(uint => WishList) public theWishList;\n\n    mapping(uint => Article) public articlesFound;\n\n    address payable public owner;\n\n     constructor() {\n        // Set the transaction sender as the owner of the contract.\n        owner = payable(msg.sender);\n    }\n\n    // Modifier to check that the caller is the owner of\n    // the contract.\n    modifier onlyOwner() {\n        require(msg.sender == owner, \"Not owner\");\n        // Underscore is a special character only used inside\n        // a function modifier and it tells Solidity to\n        // execute the rest of the code.\n        _;\n    }\n\n    struct Article {\n        uint id;\n        string imageHash; // location in IPFS\n        string description;\n        uint unitPrice;\n        uint quantity;\n        address payable owner;\n        uint quantitySold;\n        bool soldOut;\n    }\n\n    struct WishList {\n        uint id;\n        Article article;\n        address payable wishListOwner;\n    }\n\n    event ArticleCreated(\n        uint id,\n        string imageHash,\n        string description,\n        uint unitPrice,\n        address payable owner,\n        uint quantitySold,\n        bool soldOut\n    );\n\n    /* Events\n    */\n    event ArticlePurchased(\n        uint id,\n        string imageHash,\n        string description,\n        uint unitPrice,\n        address payable owner,\n        uint quantitySold,\n        bool soldOut\n    );\n\n     event AddedToWishList(\n        uint id,\n        Article article,\n        address payable wishListOwner\n    );\n\n     event ArticleDeleted(\n        Article article\n    );\n\n    event ViewedWishList(\n        WishList[] myWishList\n        );\n\n    event RemovedFromWishList(\n        WishList wish\n    );\n\n    /* Modifiers\n    */\n\n    /// @notice To check if the right amount is sent\n    /// @param _id the unit price of the article(which will be multiplied with the quantity the user want to buy)\n    modifier paidTheRightAmount(uint _id) {\n        // Fetch article\n        Article memory _article = articles[_id];\n        require(msg.value >= _article.unitPrice, \"Invalid Amount\");\n        _;\n\n    }\n\n    /* Functions\n    */\n\n    /// @notice Create an article\n    /// @param _imageHash the image hash on IPFS\n    /// @param _description the article description\n    /// @param _unitPrice the unit price - for later we will be taking the article quantity in stock\n    function createArticle(string memory _imageHash, string memory _description, uint _unitPrice) public {\n        // Validate the body request\n        // The article description should not be empty\n        require(bytes(_description).length > 0, \"The Article Description should not be empty!\");\n        // The image hash should be present\n        require(bytes(_imageHash).length > 0, \"The image hash should be present!\");\n        // The article  unit price should not be less than 0\n        require(_unitPrice > 0, \"The article unit price should not be less than 0!\");\n        // Increment aricle count\n        articleCount ++;\n        // Create the article\n        articles[articleCount] = Article(articleCount, _imageHash, _description, _unitPrice, 1, payable(msg.sender), 0, false);\n        // Trigger an event that an article has been created\n        emit ArticleCreated(articleCount, _imageHash, _description, _unitPrice, payable(msg.sender), 0, false);\n    }\n\n    /// @notice Purchase an article\n    /// @param _id the article Id\n    function purchaseArticle(uint _id) external payable paidTheRightAmount(_id) {\n        // Make sure the article has a valid id\n        require(_id > 0 && _id <= articleCount, \"The Id is not valid!\");\n        // Fetch the article\n        Article memory _article = articles[_id];\n        // Fetch the owner\n        address payable _seller = _article.owner;\n        // // Require that there is enough Ether in the transaction\n        // require(msg.value >= (_article.unitPrice));\n         // Require that article is not soldOut\n        require(!_article.soldOut);\n        // Require that the buyer is not the seller\n        require(_seller != msg.sender);\n        // Transfer ownership to the buyer and update quantity\n        _article.owner = payable(msg.sender);\n        // for future use when users will be aloowed to add quantity to the article uploaded\n        _article.quantitySold = _article.quantitySold + 1;\n        // Mark as sold out if the quantity is equal to 0\n        _article.soldOut = true;\n        // Update the product\n        articles[_id] = _article;\n        // Pay the seller by sending them Ether\n        (_seller).transfer(msg.value);\n        // Trigger an event that an article has been sold\n        emit ArticlePurchased(articleCount, _article.imageHash, _article.description, _article.unitPrice, payable(msg.sender), _article.quantitySold, _article.soldOut);\n    }\n\n     /// @notice Remove an article\n    /// @param _id the article Id\n    function removeArticle(uint _id) public {\n        // Fetch the article\n        Article memory _article = articles[_id];\n        // Make sure that the person who wants to remove the article is the owner\n        require(msg.sender == _article.owner, \"Not The Article Owner\");\n        // Delete the article\n        for (uint i = _id; i< articleCount - 1; i++){\n            articles[i] = articles[i+1];\n        }\n        delete articles[articleCount - 1];\n        articleCount--;\n\n        // Trigger an event that an article has been deleted\n        emit ArticleDeleted(_article);\n    }\n\n    /// @notice Add an article to a wishlist\n    /// @param _id the article Id\n    function addToWishList(uint _id) public {\n        // Fetch the article\n        Article memory _article = articles[_id];\n        // Make sure that the person who wants to add the article to the wishlist is not the owner\n        require(_article.owner != msg.sender, \"You are the Article Owner\");\n        // Increment aricle count\n        wishListCount ++;\n        // Add the article to the wishlist\n        theWishList[wishListCount] = WishList(wishListCount, _article, payable(msg.sender));\n        // Trigger an event that an article has been added to the wishlist\n        emit AddedToWishList(wishListCount, _article, payable(msg.sender));\n\n    }\n\n    /// @notice Remove an article to a wishlist\n    /// @param _id the article Id\n    function removeFromWishList(uint _id) public {\n        // Fetch the article\n        WishList memory _wish = theWishList[_id];\n        // Make sure that the person who wants to remove the article from the wishlist is the owner\n        require(msg.sender == _wish.wishListOwner, \"Not The Wishlist Owner\");\n        // Remove the article from the wishlist\n        for (uint i = _id; i< wishListCount - 1; i++){\n            theWishList[i] = theWishList[i+1];\n        }\n        delete theWishList[wishListCount - 1];\n        wishListCount--;\n        // Trigger an event that an article has been removed from the wishlist\n        emit RemovedFromWishList(_wish);\n    }\n\n    /// @notice search for a specific article\n    /// @param _textToSearch the text to search for\n    function search(string memory _textToSearch) view public returns (bool){\n        // Find the article\n        bool found = false;\n        for(uint i = 1; i < articleCount; i++) {\n            string memory searchT = articles[i].description;\n            found = searchT.searchSubString(_textToSearch); \n            }\n            return found;\n    }\n}",
  "sourcePath": "/Users/mniwemuhuza/Desktop/blockchain-developer-bootcamp-final-project/src/contracts/Isoko.sol",
  "compiler": {
    "name": "solc",
    "version": "0.8.7+commit.e28d00a7.Emscripten.clang"
  },
  "schemaVersion": "3.2.3",
  "updatedAt": "2021-12-15T08:05:20.531Z",
  "networkType": "ethereum",
  "devdoc": {
    "kind": "dev",
    "methods": {
      "addToWishList(uint256)": {
        "params": {
          "_id": "the article Id"
        }
      },
      "createArticle(string,string,uint256)": {
        "params": {
          "_description": "the article description",
          "_imageHash": "the image hash on IPFS",
          "_unitPrice": "the unit price - for later we will be taking the article quantity in stock"
        }
      },
      "purchaseArticle(uint256)": {
        "params": {
          "_id": "the article Id"
        }
      },
      "removeArticle(uint256)": {
        "params": {
          "_id": "the article Id"
        }
      },
      "removeFromWishList(uint256)": {
        "params": {
          "_id": "the article Id"
        }
      },
      "search(string)": {
        "params": {
          "_textToSearch": "the text to search for"
        }
      }
    },
    "title": "Isoko which mean marketpalce in kinyarwanda",
    "version": 1
  },
  "userdoc": {
    "kind": "user",
    "methods": {
      "addToWishList(uint256)": {
        "notice": "Add an article to a wishlist"
      },
      "createArticle(string,string,uint256)": {
        "notice": "Create an article"
      },
      "purchaseArticle(uint256)": {
        "notice": "Purchase an article"
      },
      "removeArticle(uint256)": {
        "notice": "Remove an article"
      },
      "removeFromWishList(uint256)": {
        "notice": "Remove an article to a wishlist"
      },
      "search(string)": {
        "notice": "search for a specific article"
      }
    },
    "notice": "this contract contains some basic marketplace functionalities",
    "version": 1
  }
}